:100000000C9477200C94A8200C94A8200C94A82081
:100010000C94A8200C94A8200C94A8200C94A82040
:100020000C94A8200C94A8200C94A8200C94A82030
:100030000C94A8200C9492A50C94A8200C94A820B1
:100040000C94A8200C945E950C94A8200C94A820E5
:100050000C94A8200C94A8200C946F710C942EA5DD
:100060000C94A8200C945A700C9450700C94A820F6
:100070000C94A8200C94A8200C94A8200C94A820E0
:100080000C94A8200C94A8200C94A8200C94A820D0
:100090000C94A8200C94A8200C94A8200C945E9E8C
:1000A0000C94A8200C94A8200C94A8200C94A820B0
:1000B0000C94A8200C94A8200C94A8200C94A820A0
:1000C0000C94A8200C94A8200C94A8200C94A82090
:1000D0000C94A8200C94A8200C94A8200C94A82080
:1000E0000C94A8208D709D70AE70B970C170D870DE
:1000F000C570D870C970CD70D870D370D1E4B4E435
:10010000B7E4D4E4BAE4BDE4C0E4CCE4C3E4DFE49F
:10011000C6E4C9E462011C01C20106015C02C4011B
:10012000E2006A016C0228022002B401A2017602F8
:10013000C40138029E018C01AA015E022E027201E6
:10014000E2014E0240019C015E013002D601A00195
:10015000700116014E023602CC01DE00084AD73B80
:100160003BCE016E84BCBFFDC12F3D6C74319ABD86
:1001700056833DDA3D00C77F11BED9E4BB4C3E91AA
:100180006BAAAABE000000803F05A84CCDB2D44E99
:10019000B93836A9020C50B9918688083CA6AAAA9B
:1001A0002ABE000000803F000C9472AE0C94DEE288
:1001B0000C944DAD0C9446AF0C9493630D940820B1
:1001C0000C9469A60D942E1E0C94144E0C941ED201
:1001D0000C9459AD0C94C9570C9471AD0C94995D65
:1001E0000C949E9D0C948D700C94CEE20D94F50AA7
:1001F0000C94559D0C9401A50C94BAE40C946A35AA
:100200000C9471350C94FACD0C9432B10D941D1EE2
:100210000C94BCCD0C944EA60D94FB220C94B9CD3D
:100220000D94A9070C9465AD0C94DFE40D94EA1FBE
:100230000D94482C0C94D3AF0D942A1E0C94D370BB
:100240000C94CD700C94B7E40C94E7520C94C170EC
:100250000C94DAE20C9487E50C9461D10C9483DF62
:100260000C9453AD0C94A6E50C9484A60C94C6E2B1
:100270000C94FDE70C9419510C94FBA60C94135F9D
:100280000D94A31F0C947FCE0C946BAD0C94449DE5
:100290000C94B2E50C9495630C943AA70C94B76750
:1002A0000C94C95D0C94E2E20C94B2940C94C6E4F4
:1002B0000C947F630C949D700C9420D20D94B31F0A
:1002C0000C94BAE20D94271E0C9434660C94A15F32
:1002D0000C94C2E20D94321E0D94F6060C9477AD88
:1002E0000D94E01F0D948F1F0C9438D00C94B970AE
:1002F0000C941CD20C943EE50D948E120C94C15DAE
:100300000C9488AF0C945DD10C94BDE40C94B6A60B
:100310000C948B4C0C947F5C0D945C1E0C942BA560
:100320000C9491630C94A9E70C94D1E40C94FF54C1
:100330000C94B24D0C94AE700D94AB1F0D94581EDE
:100340000D94D11F0D944A1E0C949DA60C94C3E4E9
:100350000C94A5630D947B1F0C9433A80C94B8CA1D
:100360000C949AE70C9437710D94461E0C9418D295
:100370000C9432E50C94FC4B0C9497AF0C9447AD65
:100380000C94439D0D94191E0D94611E0C9488636A
:100390000C944C4C0C940EA70D94FE1F0C9475A756
:1003A0000C94F4E50C9405A80C94CCE40D94C71FB0
:1003B0000C94F7C90C94C0E40C9463D10C94CAE279
:1003C0000C947DCE0D94991F0C945CCE0C9482E518
:1003D0000C947EE90C94B8E50C94C9E40C94B4E454
:1003E0000C94D4E40C94CFA60C946D350C94459DDC
:1003F0000C940FCA0C94C87A0C94D2E20C94A2DE2E
:100400000C94A4E70C947DE50C94ACE50C94DBCD46
:100410000C9470350C9427A70C941AD20C944BEAC8
:100420000C94719D0D942A2C0C9465620C9481A7F8
:100430000C9405E80C9421D70C945FAD0C945FD11B
:100440000D94401E0C949B540C94BEE20C94456495
:100450000D943C1E0C94699D0C949FE70D94851F90
:100460000D94BD1F0C944B640C9474350D94F41FC3
:100470000D94541E0C94B85D0C947A5E0C947AB171
:100480000C9483AD0C945C630C947DAD0C94469DF0
:100490000C944E4C0C948CE50C94E54B0D9412206E
:1004A0000C94C5700D94E7220C9447D00C94C9703D
:1004B0000C94D8700C9409AB0D94231E0D94801FDE
:1004C0000C94B6CD0C94D2D30C94F8E30C94AE4DAE
:1004D0000C94134C0C94EEE00D94381E0C94D6E260
:1004E0000C94A2AD0C9465D10C94E8A60D944E1E0C
:1004F0000C94B1AD0C944A7B0C9499684E414E49D2
:100500004E495459494E46CDCCCC3D0AD7233C17D1
:10051000B7D13877CC2B329595E6241FB14F0A001E
:100520000020410000C84200401C4620BCBE4CCA0E
:100530001B0E5AAEC59D7400407A10F35A00A0728B
:100540004E18090010A5D4E80000E876481700000E
:10055000E40B54020000CA9A3B000000E1F50500DC
:100560000080969800000040420F000000A0860125
:10057000000000102700000000E8030000000064F5
:1005800000000000000A0000000000010000000060
:10059000002C76D888DC674F0823DFC1DFAE59E135
:1005A000B1B796E5E3E453C63AE651997696E8E6A4
:1005B000C28426EB898C9B62ED407C6FFCEFBC9C77
:1005C0009F40F2BAA56FA5F490055A2AF75C936B89
:1005D0006CF9676DC11BFCE0E40D47FEF520E6B544
:1005E00000D0ED902E0300943577050080841E081E
:1005F0000000204E0A000000C80C333333330F983C
:100600006E12831141EF8D2114893BE65516CFFE02
:10061000E6DB18D1844B381BF77C1D901DA4BBE48E
:1006200024203284725E228100C9F124ECA1E53DD0
:1006300027434F4D4D554E49434154494F4E004479
:10064000525952554E004552524F525300494E4650
:100650004F004543484F00536C6565702E2E2E00A9
:10066000436C69636B20746F20526573756D652EE2
:100670002E2E004E6F204D6F76652E00456E642045
:1006800066696C65206C6973740A00426567696EFF
:100690002066696C65206C6973740A00286E6F208F
:1006A00066696C65290043757272656E74206669AF
:1006B0006C653A20005344207072696E74696E67ED
:1006C000206279746520004E6F742053442070724C
:1006D000696E74696E670A005072696E742074697D
:1006E0006D653A2000496E76616C69642050696ED0
:1006F000204D6F64650A000A53746174733A204692
:10070000696C616D656E7420757365643A20002CA8
:10071000204C6F6E67657374206A6F623A200054D4
:100720006F74616C2074696D653A20002C204661FD
:10073000696C65643A20002C2046696E69736865AF
:10074000643A20005072696E74733A2000537461E9
:1007500074733A200045202553006F6666004445B7
:100760004255473A004D3131332053004475706C87
:10077000696361746F722036204F46462E004348ED
:10078000414D4245525F54454D504552415455529A
:1007900045004D4F54494F4E5F4D4F444553005413
:1007A0004845524D414C5F50524F54454354494F78
:1007B0004E004155544F5245504F52545F53445F81
:1007C0005354415455530050524F4D50545F53555C
:1007D00050504F525400454D455247454E43595F86
:1007E00050415253455200434153455F4C4947489D
:1007F000545F4252494748544E45535300544F4763
:10080000474C455F4C494748545300534F46545753
:100810004152455F504F574552004255494C445F45
:1008200050455243454E54004C4556454C494E4761
:100830005F44415441005A5F50524F424500415578
:10084000544F4C4556454C005052494E545F4A4F08
:10085000420050524F4752455353004155544F5256
:1008600045504F52545F54454D5000564F4C554DD6
:1008700045545249430042494E4152595F46494C02
:10088000455F5452414E53464552005345524941EB
:100890004C5F584F4E5F584F4646004649524D57A1
:1008A0004152455F4E414D453A4D61726C696E2033
:1008B0006275676669782D322E302E782028476958
:1008C000744875622920534F555243455F434F4446
:1008D000455F55524C3A68747470733A2F2F6769AC
:1008E000746875622E636F6D2F556C74696D616BE2
:1008F00065722F4D61726C696E2050524F544F4398
:100900004F4C5F56455253494F4E3A312E30204D91
:10091000414348494E455F545950453A4475706CBF
:10092000696361746F7220362045585452554445AE
:10093000525F434F554E543A3120555549443A631E
:10094000656465326132662D343161322D3437345D
:10095000382D396231322D633535633632663336A0
:100960003766660A002F2F20004D31343520533C66
:10097000696E6465783E206F7574206F66207261C1
:100980006E67652028302D31290A00416363656C4C
:1009900065726174696F6E3A2050003F4A206F752E
:1009A00074206F662072616E67652028302E3031AA
:1009B00020746F20302E33290A0020204D61783AB0
:1009C000200020204D696E3A2000536F6674206528
:1009D0006E6473746F70733A200046523A0020467A
:1009E0006C6F773A200050726F7465637465642091
:1009F00050696E0A00496E76616C6964206578748E
:100A000072756465720A0020643A0020693A002019
:100A1000703A006469730043290A0061626C65647E
:100A200020286D696E2074656D702000436F6C64C2
:100A30002065787472756465732061726520004F5B
:100A4000666673657473204170706C6965640045F7
:100A500072723A20546F6F206661722100546F6F7A
:100A6000206661722066726F6D20726566657265C0
:100A70006E636520706F696E740A00454550524F71
:100A80004D204F4B0A002028302D31302900207690
:100A9000616C7565206F7574206F662072616E677A
:100AA0006500416476616E6365204B3D0043617370
:100AB00065206C696768743A200043617365206C37
:100AC000696768743A206F66660A00506F776572CE
:100AD0002D6C6F7373207265636F76657279200079
:100AE00052064D0646063F06310623646566696E6A
:100AF000652044454641554C545F004B6420004BF3
:100B00006920004B702000504944204175746F7477
:100B1000756E652066696E6973686564212050751D
:100B20007420746865206C617374204B702C204BAA
:100B30006920616E64204B6420636F6E7374616E14
:100B400074732066726F6D2062656C6F7720696EBA
:100B5000746F20436F6E66696775726174696F6E3A
:100B60002E680A00504944204175746F74756E6593
:100B7000206661696C6564212074696D656F7574A8
:100B80000A000A20436C6173736963205049442052
:100B90000A00204B643A2000204B693A2000204B89
:100BA000703A20000A204E6F206F76657273686F6E
:100BB0006F740A002054753A2000204B753A2000CB
:100BC000206D61783A2000206D696E3A2000206423
:100BD0003A200020626961733A2000504944204164
:100BE00075746F74756E652073746172740A005049
:100BF0004944204175746F74756E65206661696C37
:100C00006564212054656D7065726174757265202C
:100C1000746F6F20686967680A0050494420417505
:100C2000746F74756E65206661696C65642120421D
:100C30006164206578747275646572206E756D628A
:100C400065720A004572723A207574663820666FC4
:100C50006E74206E6F7420696E697469616C697A54
:100C600065642E00000C0D00FE07022603BC017F08
:100C7000FE08FE08FE05080806000040F0C8888847
:100C8000987810050808060000C0F88888888888C9
:100C9000F80505050600012030F830200508080693
:100CA00000002070F820202020E00509090600FF40
:100CB0002070A8A8B888887020050606060001E004
:100CC0008CEA8C8A0A0509090600FFF8A88888883A
:100CD0008888A8F8050A0A0600FE2050505050885F
:100CE000A8A8887003030306000340A040FFFFFF8D
:100CF000FFFFFFFFFFFFFFFFFFFFFFFFFFFFFFFF04
:100D0000FFFFFF0000000605FF0107070602008045
:100D1000808080800080030303060105A0A0A00559
:100D2000060606000050F85050F850050909060064
:100D3000FF2070A8A07028A87020050707060000F3
:100D4000C8C8102040989805070706000040A0A0DA
:100D500040A890680103030602058080800309090A
:100D60000601FF20404080808040402003090906A2
:100D700001FF8040402020204040800507070600FA
:100D80000020A8702070A82005050506000120207D
:100D9000F820200203030601FFC040800501010680
:100DA0000003F8020202060100C0C00507070600A2
:100DB00000081010204040800507070600007088DA
:100DC00098A8C8887003070706010040C04040404B
:100DD00040E0050707060000708808102040F8056D
:100DE0000707060000F80810300888700507070696
:100DF000000010305090F81010050707060000F8AA
:100E000080F008088870050707060000304080F071
:100E1000888870050707060000F8081010202020B9
:100E20000507070600007088887088887005070726
:100E30000600007088887808106002050506010029
:100E4000C0C000C0C00206060601FFC0C000C0400E
:100E500080030505060101204080402005030306AC
:100E60000002F800F80305050601018040204080DB
:100E700005070706000070881020200020050707DE
:100E80000600007088B8A8B8807005070706000043
:100E9000708888F8888888050707060000F04848A9
:100EA000704848F005070706000070888080808839
:100EB00070050707060000F04848484848F0050755
:100EC00007060000F88080F08080F805070706001C
:100ED00000F88080F0808080050707060000708899
:100EE0008080988870050707060000888888F88841
:100EF0008888030707060100E04040404040E005C5
:100F0000070706000038101010109060050707064C
:100F100000008890A0C0A090880507070600008008
:100F20008080808080F805070706000088D8A888A0
:100F30008888880507070600008888C8A8988888D8
:100F400005070706000070888888888870050707ED
:100F5000060000F08888F080808005070706000002
:100F600070888888A89068050707060000F08888C0
:100F7000F0A0908805070706000070888070088838
:100F800070050707060000F8202020202020050714
:100F9000070600008888888888887005070706008B
:100FA0000088888888505020050707060000888838
:100FB0008888A8A850050707060000888850205098
:100FC0008888050707060000888850202020200513
:100FD0000707060000F80810204080F803090906FA
:100FE00001FFE080808080808080E00507070600A8
:100FF00000804040201010080309090601FFE0208E
:10100000202020202020E005030306000520508832
:101010000501010600FEF8030303060105804020D8
:1010200005050506000070087888780507070600A2
:10103000008080F0888888F0050505060000708033
:101040008088700507070600000808788888887877
:101050000505050600007088F0807005070706008A
:1010600000304840E04040400507070600FE708819
:1010700088887808700507070600008080F0888857
:1010800088880307070601004000C0404040E00494
:1010900009090601FE1000301010101090600507BD
:1010A0000706000080808890E0908803070706010B
:1010B00000C04040404040E0050505060000D0A8C3
:1010C000A8A8A8050505060000B0C88888880505F9
:1010D0000506000070888888700507070600FEF086
:1010E000888888F080800507070600FE7888888851
:1010F000780808050505060000B0C8808080050551
:101100000506000078807008F0050707060000203B
:1011100020F82020201805050506000088888898FA
:101120006805050506000088888850200505050625
:1011300000008888A8A850050505060000885020F2
:1011400050880507070600FE8888885020408005E3
:101150000505060000F8102040F80309090601FF04
:101160002040404080404040200109090602FF80A5
:1011700080808080808080800309090601FF804094
:101180004040204040408005030306000248A890EC
:10119000FF00060900FE06018902FE20FFFE07FE91
:1011A00006FE000000060007010606060200808019
:1011B00080800080030303060103A0A0A0050707A9
:1011C0000600FF5050F850F850500509090600FE7F
:1011D0002070A8A07028A870200608080600FF400C
:1011E000A84810204854080507070600FF609090A3
:1011F000609890680103030602038080800207075D
:101200000602FF408080808080400207070602FFC0
:10121000804040404040800505050600008850F8A9
:1012200050880505050600002020F820200204044F
:101230000602FEC0404080050101060002F80202DD
:1012400002060200C0C0040606060100101020407D
:10125000808004060606010060909090906003066E
:101260000606010040C0404040E0040606060100BA
:101270006090102040F0040606060100F020601087
:1012800010E005060606000010305090F810040625
:1012900006060100F080E01010E0040606060100DA
:1012A0006080E0909060040606060100F0101020B7
:1012B00040400406060601006090609090600406BD
:1012C000060601006090907010600205050602009D
:1012D000C0C000C0C00207070602FEC0C000C04078
:1012E00040800505050600001860806018050303AE
:1012F000060001F800F8050505060000C0300830BA
:10130000C004070706010060901060400040050619
:10131000060600007090A8B0807005060606000062
:10132000205088F88888050606060000F088F088B6
:1013300088F0040606060100609080809060040634
:1013400006060100E090909090E004060606010079
:10135000F080E08080F0040606060100F080E08066
:101360008080040606060100609080B0906004064C
:10137000060601009090F09090900306060601008A
:10138000E040404040E0050606060000381010101E
:10139000906004060606010090A0C0A0909004068C
:1013A000060601008080808080F0050606060000A9
:1013B00088D8A8A8888804060606010090D0B090B6
:1013C00090900506060600007088888888700406DC
:1013D00006060100E09090E080800407070601FF08
:1013E000609090D0B06010040606060100E0909076
:1013F000E090900406060601006090402090600591
:101400000606060000F8202020202004060606011B
:1014100000909090909060040606060100909090D5
:10142000F060600506060600008888A8A8D8880530
:101430000606060000885020205088050606060093
:1014400000888850202020040606060100F01020A5
:101450004080F0030606060100E080808080E00402
:1014600006060601008080402010100306060601D3
:1014700000E020202020E005030306000320508820
:101480000501010600FEF802020206020480400483
:1014900004040601007090907004060606010080A6
:1014A00080E09090E00404040601007080807004E5
:1014B00006060601001010709090700404040601E6
:1014C0000060B0C070040606060100205040E040F5
:1014D000400406060601FE60909070106004060647
:1014E0000601008080E0909090030606060100400F
:1014F00000C04040E00308080601FE2000602020F4
:1015000020A0400406060601008080A0C0A0900331
:101510000606060100C040404040E0050404060005
:1015200000D0A8A888040404060100E0909090046C
:101530000404060100609090600406060601FEE0C7
:101540009090E080800406060601FE709090701076
:1015500010040404060100A0D080800404040601E5
:101560000070C030E00406060601004040E0405034
:101570002004040406010090909070040404060105
:10158000009090606005040406000088A8A850043C
:101590000404060100906060900406060601FE90B7
:1015A0009090709060040404060100F02040F00365
:1015B0000707060100204040804040200107070641
:1015C00002FF808080808080800307070601008002
:1015D00040402040408004020206010350A0FFFF6B
:1015E000FFFFFFFFFFFFFFFFFFFFFFFFFFFFFFFF0B
:1015F000FFFFFFFFFFFFFFFFFFFFFFFFFFFFFF00FA
:1016000000000600070106060602008000808080B8
:10161000800406060601FF2070A0A07020050707C1
:101620000600FF304840F04040F805050506000080
:10163000A8508850A80506060600008850F820F833
:10164000200107070602FF80808000808080040759
:10165000070601FF708060906010E0030101060141
:1016600005A0060707060000788494A494847803F4
:10167000050506010160A06000E005050506000003
:101680002850A05028040303060100F010100401A4
:1016900001060102F00607070600007884B4A4A43E
:1016A0008478040101060105F004030306010260C9
:1016B00090600507070600FF2020F8202000F803AF
:1016C000050506010140A02040E0030505060101D3
:1016D000C0204020C002020206020440800405052A
:1016E0000601FF9090B0D08005060606000078E85D
:1016F000E8682828010101060202800202020602AF
:10170000FE408003050506010140C04040E003059E
:101710000506010140A04000E0050505060000A007
:10172000502850A00508080600FF40C04050703007
:1017300078100508080600FF40C0405068081038BF
:101740000508080600FFC0204030F030781004077C
:101750000706010020002060809060050707060052
:1017600000402020507088880507070600001020E0
:101770002050708888050707060000205020507010
:1017800088880507070600002850205070888805C3
:1017900007070600005000205070888805070706DC
:1017A000000020502050708888050606060000784A
:1017B000A0F0A0A0B80408080601FE609080809008
:1017C0006020400407070601004020F080E080F020
:1017D0000407070601002040F080E080F0040707BE
:1017E0000601002050F080E080F0040707060100A9
:1017F0005000F080E080F00307070601008040E021
:10180000404040E00307070601002040E040404020
:10181000E003070706010040A0E0404040E0030766
:1018200007060100A000E0404040E0050606060073
:10183000007048E848487004070706010050A0906F
:10184000D0B090900407070601004020609090906F
:101850006004070706010020406090909060040734
:101860000706010020506090909060040707060171
:101870000050A0609090906004070706010050009F
:101880006090909060050505060000885020508803
:101890000408080601FF1070B0B0D0D0E080040743
:1018A0000706010040209090909060040707060111
:1018B000002040909090906004070706010020509F
:1018C000909090906004070706010050009090905F
:1018D0009060050707060000102088502020200493
:1018E000060606010080E09090E0800406060601EE
:1018F000006090A0A090A00407070601004020000F
:1019000070909070040707060100204000709090CE
:1019100070040707060100205000709090700407C3
:101920000706010050A000709090700406060601A2
:1019300000500070909070040707060100205020AE
:101940007090907005040406000070A8B07804063A
:10195000060601FE70808070204004070706010023
:1019600040200060B0C0700407070601002040005E
:1019700060B0C07004070706010020500060B0C0CE
:1019800070040606060100500060B0C0700307072F
:10199000060100804000C04040E003070706010048
:1019A000204000C04040E003070706010040A000BF
:1019B000C04040E0030606060100A000C04040E031
:1019C000040707060100306010709090600407075C
:1019D00006010050A000E090909004070706010067
:1019E000402000609090600407070601002040003E
:1019F00060909060040707060100205000609090FE
:101A00006004070706010050A00060909060040683
:101A10000606010050006090906005050506000074
:101A20002000F8002004040406010070B0D0E00497
:101A300007070601004020009090907004070706F9
:101A400001002040009090907004070706010020DC
:101A5000500090909070040606060100500090908F
:101A600090700409090601FE20400090909070904B
:101A7000600408080601FE8080E09090E080800409
:101A800008080601FE500090909070906024F4D4F5
:101A90003050C38E20C2A24017828B7011127A91EF
:101AA0000D816CD90AA861E108C7586607615143E6
:101AB000061E4B5D05C145A7041A411104093D9856
:101AC00003713931034036DB0265339102D430545F
:101AD00002802E1D02632CEE01752AC501B028A0DC
:101AE00001102781018F2564012B244B01E0223452
:101AF00001AC211F018D200D01801FFC00841EED13
:101B000000971DDF00B81CD200E61BC600201BBCDE
:101B100000641AB200B219A8000A19A0006A189944
:101B200000D117910040178B00B516840031167E46
:101B300000B31579003A157300C7146F0058146A82
:101B400000EE1366008813630025135E00C7125B66
:101B5000006C12570015125400C111510070114F42
:101B60000021114B00D61049008D1047004610444B
:101B70000002104200C00F4000800F3E00420F3CA8
:101B800000060F3B00CB0E3800930E37005C0E357D
:101B900000270E3400F30D3200C10D3100900D30DE
:101BA00000600D2E00320D2D00050D2C00D90C2BE0
:101BB00000AE0C2900850C29005C0C2700350C2791
:101BC000000E0C2600E80B2400C40B2400A00B23FD
:101BD000007D0B23005A0B2100390B2100180B202C
:101BE00000F80A1F00D90A1E00BB0A1E009D0A1D2C
:101BF00000800A1D00630A1C00470A1B002C0A1BF8
:101C000000110A1A00F7091A00DD091900C40919A0
:101C100000AB091900920917007B09180063091726
:101C2000004C09160036091600200916000A09158D
:101C300000F5081500E0081400CC081400B80814DA
:101C400000A4081400900813007D0812006B08130C
:101C50000058081200460812003408110023081129
:101C6000001208110001081100F0071000E0071031
:101C700000D0071000C0071000B0070F00A1071028
:101C80000091070E0083070F0074070F0065070E11
:101C90000057070E0049070E003B070D002E070EE8
:101CA0000020070D0013070D0006070D00F9060CB4
:101CB00000ED060D00E0060C00D4060C00C8060C72
:101CC00000BC060C00B0060C00A4060B0099060C24
:101CD000008D060B0082060B0077060B006C060BCE
:101CE0000061060A0057060B004C060A0042060A6D
:101CF0000038060A002E060A0024060A001A060A00
:101D0000001006090007060A00FD050900F4050990
:101D100000EB050900E2050900D9050900D0050915
:101D200000C7050900BE050900B5050800AD050896
:101D300000A50509009C050800940508008C05080D
:101D400000840508007C050800740508006C050780
:101D500000650508005D050700560508004E0507EB
:101D60000047050700400508003805070031050752
:101D7000002A050700230507001C050600160507B5
:101D8000000F0507000805060002050700FB040612
:101D900000F5040700EE040600E8040600E204076C
:101DA00000DB040600D5040600CF040600C90406C3
:101DB00000C3040600BD040600B7040600B1040514
:101DC00000AC040600A6040600A00405009B04065F
:101DD0000095040500900406008A040500850405AA
:101DE00000800406007A04050075040500700405EF
:101DF000006B04050066040500610405005C040531
:101E00000057040500520405004D04050048040570
:101E100000430405003E0404003A040500350405AF
:101E200000300404002C04050027040400230405EA
:101E3000001E0404001A0404001604050011040422
:101E4000000D040400090405000404040000040457
:101E500000FC030400F8030400F4030400F003048E
:101E600000EC030400E8030400E4030400E00304BE
:101E700000DC030400D8030400D4030400D00304EE
:101E800000CC030400C8030300C503030024F404CA
:101E9000D9201BC40C5C0E9804C4095F026507714D
:101EA00001F405F900FB04B30048048700C103698D
:101EB000005803550003034500BE023A0084023176
:101EC0000053022A002902250004022000E4011C1C
:101ED00000C8011900AF0117009801140084011314
:101EE00000710110006101100051010E0043010D4D
:101EF0000036010B002B010B0020010B001501091E
:101F0000000C01090003010800FB000800F30008B1
:101F100000EB000700E4000600DE000600D8000623
:101F200000D2000600CC000500C7000500C2000575
:101F300000BD000400B9000400B5000400B10004B5
:101F400000AD000400A9000400A5000300A20003E6
:101F5000009F0004009B000300980003009500020E
:101F60000093000300900003008D0002008B00032B
:101F70000088000200860002008400030081000245
:101F8000007F0002007D0002007B00020079000259
:101F90000077000100760002007400020072000168
:101FA00000710002006F0002006D0001006C000271
:101FB000006A00010069000200670001006600017C
:101FC0000065000100640002006200010061000180
:101FD00000600001005F0002005D0001005C000184
:101FE000005B0001005A0001005900010058000187
:101FF0000057000100560001005500010054000187
:102000000053000000530001005200010051000184
:1020100000500001004F0001004E0000004E000182
:10202000004D0001004C0001004B0000004B00017E
:10203000004A00010049000100480000004800017A
:102040000047000100460000004600010045000076
:10205000004500010044000100430000004300016E
:102060000042000000420001004100000041000168
:1020700000400001003F0000003F0001003E000062
:10208000003E0001003D0000003D0001003C00005A
:10209000003C0000003C0001003B0000003B000150
:1020A000003A0000003A0001003900000039000148
:1020B0000038000000380000003800010037000040
:1020C0000037000100360000003600000036000135
:1020D000003500000035000000350001003400002C
:1020E0000034000000340001003300000033000021
:1020F0000033000100320000003200000032000115
:10210000003100000031000000310001003000000B
:102110000030000000300001002F0000002F000000
:10212000002F0000002F0001002E0000002E0000F4
:10213000002E0001002D0000002D0000002D0000E9
:10214000002D0001002C0000002C0000002C0000DD
:10215000002C0001002B0000002B0000002B0000D1
:10216000002B0001002A0000002A0000002A0000C5
:10217000002A0001002900000029000000290000B9
:1021800000290000002900010028000000280000AC
:10219000002800000028000000280001002700009F
:1021A0000027000000270000002700000027000192
:1021B0000026000000260000002600000026000087
:1021C0000026000100250000002500000025000079
:1021D000002500000025000000250001002400006B
:1021E000002400000024000000240000002400015E
:1021F0000023000000230000002300000023000053
:102200000023000000230000002300010022000042
:102210000022000000220000002200000022000036
:102220000022000100210000002100000021000028
:102230000021000000210000002100000021000119
:10224000002000000020000000200000002000000E
:1022500000200000002000000020000000200001FD
:10226000001F0000001F0000001F0000001F0000F2
:10227000001F0000001F0000001F0001001E0000E2
:10228000001E0000001E0000001E000000232C00A5
:1022900000B8220000561800003A0F0000B80800ED
:1022A00000B1040000710200003E0100004C6F61AB
:1022B00064206D6D00556E6C6F6164206D6D00461D
:1022C000696C2E204469612E004520696E206D6D79
:1022D000C2B3004D3330332055312045256920539A
:1022E000256900504944204175746F74756E6520EE
:1022F0002A005049442D44202A005049442D4920A9
:102300002A005049442D50202A00200820466163AD
:1023100074002008204D6178002008204D696E006F
:102320004175746F74656D70006F6F6F0000001001
:102330007CFEFEFE444024800000318000002480AA
:10234000444004000E000E007FC0FFE0FFE0FFE00D
:10235000FFE01FC07FF0DDD8FFF87FF006000F0020
:102360001F8036C03FC009001680294006000F00BC
:102370001F8036C03FC0168020401080104008806B
:102380001FC037607FF05FD050500D8010404890E4
:102390005FD077707FF01FC0104020200F007FE0DB
:1023A000FFF0E670FFF0198036C0C0300F007FE00C
:1023B000FFF0E670FFF0198036C0198047414D45A7
:1023C000204F564552004F75746167652052656312
:1023D0006F766572790041626F7574205072696E14
:1023E00074657200436F6E66696775726174696FB8
:1023F0006E005053550047656E65726963005072F8
:102400006F746F636F6C00312E3000426175640031
:1024100032353030303000556C74696D616B6572E7
:1024200020322E78004578747275646572730044AA
:1024300075706C696361746F7220360032303230AF
:102440002D30332D32380047616D6573005072694D
:102450006E74657220537461747300546865726D94
:102460006973746F727300426F61726420496E66A3
:102470006F005072696E74657220496E666F004D10
:10248000313030300053746F70205072696E7400B8
:10249000526573756D65205072696E740053746F68
:1024A00070004368616E67652046696C616D656E9A
:1024B00074005072656865617420437573746F6D44
:1024C000004261636B004D3231004368616E6765A5
:1024D000204D65646961004D363030204230005136
:1024E0007569636B204D656E75004E6F204D656498
:1024F00069610054756E6500496E666F20536372A2
:1025000065656E0054656D70657261747572650005
:10251000436F6F6C646F776E0050726568656174AD
:1025200020414253005072656865617420504C41EF
:10253000004261627973746570205A00416476616B
:102540006E6365204B0046616E20537065656400C4
:102550004E6F7A7A6C65004D61696E0050726568E5
:1025600065617420504C4120456E6400507265686E
:1025700065617420504C412042656400507265686A
:102580006561742041425320426564005072656861
:102590006561742041425320456E6400466C6F773C
:1025A000004572726F722077726974696E67207469
:1025B0006F20454550524F4D210A00627573793A9C
:1025C0002070617573656420666F7220696E707526
:1025D000740A00627573793A2070617573656420BE
:1025E000666F7220757365720A00627573793A209E
:1025F00070726F63657373696E670A0053544F504E
:102600005045442E20005072696E746572207374B8
:102610006F707065642064756520746F20657272D8
:102620006F72732E20466978207468652065727217
:102630006F7220616E6420757365204D39393920C1
:10264000746F20726573746172742E202854656DE6
:102650007065726174757265206973207265736547
:10266000742E20536574206974206166746572202D
:1026700072657374617274696E67290A004E6F2007
:10268000436865636B73756D2077697468206C6946
:102690006E65206E756D6265722C204C61737420BE
:1026A0004C696E653A2000636865636B73756D20D5
:1026B0006D69736D617463682C204C617374204C78
:1026C000696E653A20004C696E65204E756D6265D5
:1026D00072206973206E6F74204C617374204C6992
:1026E0006E65204E756D6265722B312C204C6173C6
:1026F00074204C696E653A20004D313130005344EE
:102700002072656164206572726F720A0021212057
:102710004B494C4C20636175736564206279207469
:102720006F6F206D75636820696E6163746976658B
:102730002074696D65202D2063757272656E74203A
:10274000636F6D6D616E643A200019171B162021AE
:102750001F1A2324221D2A2B25044002FF3E0407B2
:10276000000120436F756E7420583A0045310062B5
:102770006564002C2073797374656D2073746F70B9
:1027800070656421204865617465725F49443A2030
:102790000048656174696E67204661696C65640014
:1027A00048656174696E67206661696C6564004D97
:1027B0003131322053687574646F776E00202D209C
:1027C000496E76616C6964206578747275646572AF
:1027D000206E756D62657220210A00544845524D85
:1027E000414C2052554E4157415900546865726D15
:1027F000616C2052756E61776179004572723A2082
:102800004D415854454D50004D415854454D502070
:10281000747269676765726564004572723A204D2B
:10282000494E54454D50004D494E54454D5020742D
:102830007269676765726564004D383420582059A5
:10284000205A20450000000000300E0100C00E0A92
:1028500000500F1400D00F1E0060102800E010324E
:102860000070113C00F01146007012500000135A25
:10287000008013640000146E00901478001015821C
:102880000090158C00101696009016A0001017AA44
:10289000009017B4001018BE009018C8001019D28C
:1028A000009019DC00101AE600801AF000001BFAF4
:1028B00000801B0401F01B0E01701C1801F01C228B
:1028C00001601D2C01E01D3601501E4001D01E4A42
:1028D00001401F5401B01F5E0130206801A020722A
:1028E0000110217C0190218601002290016026F4D4
:1028F00001902A5802802EBC0250322003E0358419
:10290000035039E803803C4C0470012C01900127EE
:1029100001B0012201C0011D01F0011801100213D4
:102920000130020E016002090190020401C002FFA1
:10293000000003FA004003F5008003F000D003EB31
:10294000002004E6007004E100E004DC004005D74C
:1029500000C005D2004006CD00D006C8008007C3E5
:10296000003008BE00F008B900C009B400B00AAFDA
:1029700000B00BAA00D00CA500000EA000500F9BC9
:1029800000C01096005012910000148C00C01587F2
:1029900000B0178200B0197D00D01B7800001E73B4
:1029A0000040206E0090226900F024640040275F00
:1029B0000090295A00E02B5500102E500020304B7B
:1029C0000010324600E033410090353C00103737AC
:1029D0000070383200A0392D00B03A2800A03B2307
:1029E00000603C1E00103D1900903D1400103E0F89
:1029F00000703E0A00C03E0500003F0000403FFB63
:102A0000FF803FF6FFC03FF1FF53657474696E6746
:102A1000732053746F7265642028004361703A001C
:102A200047322F47332062616420706172616D65A7
:102A3000746572730A00656E7175657565696E6798
:102A40002022006F6B00526573656E643A2000258A
:102A5000697920256964202569682025696D20250C
:102A600069730042656420436F6F6C696E672E2E38
:102A70002E004265642048656174696E672E2E2EB3
:102A800000000000010000000100008000555555C5
:102A9000000000400033333300AAAA2A00499224E0
:102AA0000000002000C7711C0099991900D145173A
:102AB00000555515003BB1130024491200111111A6
:102AC00000000010000F0F0F00E3380E0043790DD7
:102AD00000CCCC0C00C3300C00E8A20B0064210B2E
:102AE00000AAAA0A00703D0A009DD80900427B098D
:102AF0000092240900DCD3080088880800104208EE
:102B00000000000800F0C107008787070075500724
:102B100000711C07003EEB0600A1BC060069900690
:102B20000066660600703E06006118060017F40590
:102B30000074D105005BB00500B29005006272051B
:102B4000005555050078390500B81E050005050536
:102B5000004EEC040087D40400A1BD040090A7043B
:102B60000049920400C17D0400EE690400C75604C8
:102B700000444404005C32040008210400411004B5
:102B800000000004003FF00300F8E0030026D20339
:102B900000C3C30300CCB503003AA803000A9B039B
:102BA00000388E0300C08103009F750300D06903C5
:102BB00000505E03001D53030034480300913D03A1
:102BC000003333030016290300381F030097150351
:102BD00000300C0300030303000BFA020049F1026A
:102BE00000BAE802005CE002002DD802002DD002FD
:102BF0000059C80200B0C0020031B90200DAB102C7
:102C000000AAAA0200A0A30200BC9C0200FA95023E
:102C1000005C8F0200DF88020082820200457C0295
:102C2000002776020027700200436A02007C6402DB
:102C300000D05E02003F590200C8530200FFFDFCB5
:102C4000FAF8F6F4F2F0EEECEAE9E7E5E3E1E0DECB
:102C5000DCDAD9D7D5D4D2D0CFCDCBCAC8C7C5C37B
:102C6000C2C0BFBDBCBAB9B7B6B4B3B2B0AFADACF9
:102C7000AAA9A8A6A5A4A2A1A09E9D9C9A9998974E
:102C800095949392908F8E8D8B8A89888786848382
:102C90008281807F7E7D7B7A797877767574737296
:102CA00071706F6E6D6C6B6A69686766656463628C
:102CB00061605F5E5D5C5B5A595858575655545376
:102CC000525150504F4E4D4C4B4A4A494847464648
:102CD000454443424241403F3E3E3D3C3B3B3A3906
:102CE000383837363535343332323130302F2E2EB6
:102CF0002D2C2B2B2A292928272726252524232359
:102D000022212120201F1E1E1D1C1C1B1B1A1919ED
:102D10001818171616151514131312121111100F77
:102D20000F0E0E0D0D0C0C0B0A0A090908080707F7
:102D3000060605050404030302020100002053698E
:102D40007A653A200043616E6E6F74206F70656E15
:102D50002073756264697220005344206361726459
:102D6000206F6B0A006F70656E526F6F7420666122
:102D7000696C65640A00766F6C756D652E696E69A5
:102D800074206661696C65640A00534420696E6949
:102D900074206661696C0A004D3234004D32332074
:102DA00025730046696C652073656C6563746564A2
:102DB0000A0046696C65206F70656E65643A200094
:102DC000454E4420535542524F5554494E450A00F2
:102DD0002220706F73002220706172656E743A2237
:102DE00000535542524F5554494E452043414C4C97
:102DF000207461726765743A2200747279696E6733
:102E000020746F2063616C6C207375622D67636F33
:102E100064652066696C6573207769746820746FD7
:102E20006F206D616E79206C6576656C732E204D18
:102E30004158206C6576656C2069733A310A00440C
:102E4000656C6574696F6E206661696C65642C20C1
:102E500046696C653A200046696C652064656C655E
:102E60007465643A0057726974696E6720746F20E4
:102E700066696C653A2000667265736800646F6904
:102E80006E67004E6F77200002687474703A2F2FBF
:102E90006D61726C696E66772E6F7267006275671E
:102EA0006669782D322E302E78004D31303030204A
:102EB00053002020506C616E6E65724275666665C7
:102EC0007242797465733A20002046726565204D20
:102ED000656D6F72793A2000436F6D70696C65643F
:102EE0003A204D617220323820323032300A0020D0
:102EF0004C61737420557064617465643A2032309B
:102F000032302D30332D3238207C20417574686F7B
:102F1000723A2028526F62204D656E646F6E2C20CD
:102F200064656661756C7420636F6E666967290AF3
:102F3000006275676669782D322E302E780A004D52
:102F400061726C696E0020536F66747761726520E0
:102F500052657365740A00205761746368646F6713
:102F60002052657365740A002042726F776E206F7D
:102F700075742052657365740A0020457874657213
:102F80006E616C2052657365740A00506F776572CC
:102F900055700A006175746F25632E6700473238DB
:102FA000585900446F6E65207072696E74696E675F
:102FB0002066696C650A004D30513153313830302C
:102FC000004D3051315031004D3737004D33310015
:102FD0006572726F722077726974696E6720746FA0
:102FE0002066696C650A00446F6E652073617669BE
:102FF0006E672066696C652E0A004D323900456E99
:103000006473746F7073002553202563202563203B
:10301000256320256300656E6473746F7073206888
:1030200069743A200001FFFFFFFFFFFFFFFFFFFF72
:10303000FFFFFF0FFFFFFFFFFFFFFFFFFFFFFFFF90
:10304000FF1E0000000000000000000007FFFF3826
:103050000000000000000000000003FFFF700000FF
:10306000000000000000000001FFFF600000000001
:1030700000000000000000FFFF60000000000000F2
:1030800000000000007FFFC0000000000000000002
:103090007800003FFFC00FC0FC000000000078185F
:1030A000001FFFC03FE1FF0000000000783C000F60
:1030B000FFC07FF3FF8000000000783C0007FFC0E6
:1030C000FFFFFFC000000000783C0003FFC1F87F55
:1030D00087E00000000078000001FFC1F03F03E03E
:1030E0000000000078000000FFC1E01E01E01F00AA
:1030F00003E0783C03F07FC1E01E01E07FC00FF8E1
:10310000783C07FC3FC1E01E01E1FFE01FFC783C7A
:103110000FFE1FC1E01E01E3FFF03FFE783C1FFEE3
:103120000FC1E01E01E3F3F83F3E783C3F3F07C18B
:10313000E01E01E7E0FC7C1F783C3E1F07C1E01E5B
:1031400001E7C07C7C0F783C3C0F03C1E01E01E727
:10315000807C780F783C3C0F03C1E01E01E7803C87
:103160007800783C3C0F03C1E01E01E7803C78000A
:10317000783C3C0F03C1E01E01E7803C7800783CBE
:103180003C0F03C1E01E01E7C03C7800783C3C0FD7
:1031900003C1E01E01E3E03C78007C3C3C0F03C12E
:1031A000E01E01E3FF3FF8007FBC3C0F03C1E01EBF
:1031B00001E1FF3FF8003FBFFC0F03C1E01E01E04B
:1031C000FF3FF8001FBFFC0F03C1E01E01E07F3F7F
:1031D000F8000FBFFC0F03600000000000000000BB
:1031E0000000000007600000000000000000000078
:1031F0000000067000000000000000000000000059
:103200000E380000000000000000000000001C1E3E
:10321000000000000000000000000000780FFFFF29
:10322000FFFFFFFFFFFFFFFFFFFFF001FFFFFFFFBB
:10323000FFFFFFFFFFFFFFFF8020746F6F206C6FA9
:103240006E6720657874727573696F6E2070726531
:1032500076656E7465640A0020636F6C642065781F
:1032600074727573696F6E2070726576656E7465C1
:10327000640A00486F74656E6420746F6F20636F1A
:103280006C640A00204D39322058004D3630303AF7
:1032900020546F6F20436F6C640053656E64204D43
:1032A00031303820746F2068656174206E6F7A7ACF
:1032B0006C650A00496E736572742066696C616D95
:1032C000656E7420616E642073656E64204D3130CC
:1032D000380A004D32342053256C642054256C6428
:1032E000004739322E3920452573004731204625C5
:1032F00064004739322E39205A2573004731205A4D
:10330000302046323030004731205825732059256F
:1033100073204633303030004D313036205025692F
:1033200020532569004D31303920532569004D3136
:10333000393020532569004D323030204425730048
:103340004739322E392045305A300A47315A320A2D
:10335000473238523058590020496E76616C6964A2
:1033600020657874727564657220004F6666004F40
:103370006E00416476616E636564205365747469A0
:103380006E677300496E6974004D34323800496EBF
:10339000697469616C697A6520454550524F4D00EA
:1033A000447269766520537472656E677468005361
:1033B000746570732F6D6D004A65726B00416363B5
:1033C000656C65726174696F6E0056656C6F6369D8
:1033D00074790053657420486F6D65204F6666737D
:1033E000657473004E65787420436F726E65720069
:1033F000446F6E65004E65787400486F6D696E6746
:103400002058595A004C696768742042726967688D
:10341000746E65737300526573746F7265204465D2
:103420006661756C7473004C6F61642053657474CD
:10343000696E67730053746F7265205365747469A5
:103440006E67730050726568656174204142532055
:10345000436F6E66005072656865617420504C4120
:1034600020436F6E660043617365204C6967687422
:10347000005654726176204D696E00566D696E007B
:10348000566D6178204500566D6178205A00566D62
:103490006178205900566D6178205800416D61783F
:1034A000204500416D6178205A00416D61782059B6
:1034B00000416D6178205800412D54726176656C31
:1034C00000412D5265747261637400416363656CE1
:1034D000004A756E6374696F6E20446576004573AB
:1034E000746570732F6D6D005A73746570732F6DF2
:1034F0006D005973746570732F6D6D00587374652A
:1035000070732F6D6D002568753A2530326875002F
:10351000256875642025303268753A253032687523
:10352000001FE0201020102010102010202010205C
:103530001030300840048003001FE03FF03FF03FB0
:10354000F01FE01FE03FF03FF03FF00FC0078003A7
:10355000003FFFF038007030FC3020FC1020781065
:103560002030102C00D02E31D02F7BD02F7BD02EAE
:1035700031D02C00D020301020781020FC1030FCEE
:10358000303800703FFFF03FFFF038007031863078
:103590002387102787902F87D02F03D0203010202B
:1035A00078102078102030102F03D02F87D0278755
:1035B000902387103186303800703FFFF01FFFF8EE
:1035C0001FFFF804104002082002082004104008E1
:1035D00020801041001041000820800410400000AD
:1035E000001FFFF81FFFF8554E4C4F41442046493D
:1035F0004C414D454E540046494C414D454E54209A
:103600004348414E4745004739310A4731205A3235
:10361000350A4739300A4D31313720436F6D6D61BE
:103620006E6420436F6D706C657465004D3134308D
:10363000205337300A4D31303420533138300A4D61
:1036400031313720436F6D6D616E6420436F6D7053
:103650006C657465004D31343020533131300A4D82
:1036600031303420533234300A4D31313720436FFA
:103670006D6D616E6420436F6D706C657465004D97
:103680003134302053300A4D3130342053300A4D1C
:103690003130362053300A4D31313720436F6D6D54
:1036A000616E6420436F6D706C6574650050726567
:1036B0006865617420666F722041425300507265E4
:1036C0006865617420666F7220504C41004C6F77C2
:1036D00065722032356D6D004D37303220542564CF
:1036E000004D36303020423020542564004D3730B4
:1036F00032203B2564004D37303120542564005082
:1037000075726765206D6F726500436F6E74696EC8
:10371000756500524553554D45204F5054494F4E05
:10372000533A005052494E5420504155534544009D
:1037300020204E6F7A7A6C653A2000536E346B33DA
:1037400000496E76616465727300427269636B6FE3
:10375000757400256C642E25696D0045787472754A
:1037600064656420546F74616C004C6F6E676573A0
:1037700074204A6F622054696D65003E2000546FCA
:1037800074616C205072696E742074696D650043B9
:103790006F6D706C65746564005072696E7420435F
:1037A0006F756E7400313530004245443A455043E0
:1037B0004F53203130304B0052756E617761792064
:1037C00057617463683A204F4E004D61782054650C
:1037D0006D7000323735004D696E2054656D700094
:1037E00045313A20507431303020556C74694D4267
:1037F000203576005061726B696E672E2E2E0000A8
:10380000005761697420666F720066696C616D654E
:103810006E74206368616E676500746F20737461F5
:103820007274005761697420666F720066696C611A
:103830006D656E7420756E6C6F616400004E6F7AFA
:103840007A6C652068656174696E6700506C6561AB
:10385000736520776169742E2E2E00005072657397
:103860007320627574746F6E00746F206865617484
:10387000206E6F7A7A6C650000496E7365727420F1
:1038800066696C616D656E7400616E64207072654E
:10389000737320627574746F6E00746F20636F6E43
:1038A00074696E7565005761697420666F72006691
:1038B000696C616D656E74206C6F6164000050729C
:1038C00065737320427574746F6E00746F20726537
:1038D00073756D65207072696E740000576169744C
:1038E00020666F72207072696E7400746F2072654A
:1038F00073756D652E2E2E00005761697420666FFA
:10390000720066696C616D656E74207075726765B2
:1039100000003F0043616E63656C004D6F74696F1A
:103920006E005374617274205072696E740043614A
:103930006E6E6F7420656E74657220737562646953
:10394000723A2000022E2E004D3834004469736113
:10395000626C65205374657070657273004C657697
:10396000656C20436F726E657273004732385A007F
:10397000486F6D65205A004732385900486F6D65B1
:103980002059004732385800486F6D65205800476D
:103990003238004175746F20486F6D65006F706537
:1039A0006E206661696C65642C2046696C653A20FE
:1039B00000202F002042403A0020403A0020573A91
:1039C000007C3C3E5E2B3D3F2F5B5D3B2C2A225C06
:1039D000005072696E742066726F6D204D65646967
:1039E00061005072696E742050617573656400489F
:1039F0006F6D652025732573257320466972737476
:103A000000220A00556E6B6E6F776E20636F6D6DCE
:103A1000616E643A2022004475706C696361746F52
:103A20007220362052656164792E005072696E747E
:103A3000696E672E2E2E0020453A00205A3A00204B
:103A4000593A0020520020204D36303320002055B6
:103A50000046696C616D656E74206C6F61642F75D2
:103A60006E6C6F6164206C656E677468733A0020D9
:103A7000204D3930372058005374657070657220BE
:103A80006D6F746F722063757272656E74733A0035
:103A900020204D393030204B004C696E656172201A
:103AA000416476616E63653A0020204D34313320E5
:103AB0005300506F7765722D4C6F7373205265639E
:103AC0006F766572793A0020204D333034205000F3
:103AD00020490020204D33303120500050494420EF
:103AE00073657474696E67733A002046002048005D
:103AF00020204D3134352053004D61746572696169
:103B00006C2068656174757020706172616D657498
:103B10006572733A0020204D323036205800486FCD
:103B20006D65206F66667365743A00204A00202038
:103B30004D323035204200416476616E6365643AEF
:103B400020423C6D696E5F7365676D656E745F746E
:103B5000696D655F75733E20533C6D696E5F666588
:103B60006564726174653E20543C6D696E5F747269
:103B70006176656C5F66656564726174653E204A56
:103B80003C6A756E635F6465763E002054002020B9
:103B90004D323034205000416363656C657261744E
:103BA000696F6E2028756E6974732F7332293A20FD
:103BB000503C7072696E745F616363656C3E205245
:103BC0003C726574726163745F616363656C3E200F
:103BD000543C74726176656C5F616363656C3E0032
:103BE00020204D3230312058004D6178696D756D5F
:103BF00020416363656C65726174696F6E2028751E
:103C00006E6974732F7332293A0020204D3230339D
:103C10002058004D6178696D756D20666565647228
:103C2000617465732028756E6974732F73293A0067
:103C300053746570732070657220756E69743A00F4
:103C400020204D3230302044300A0020204D3230C8
:103C5000302044002044697361626C65640A004648
:103C6000696C616D656E742073657474696E6773D9
:103C70003A0020204D3134392043203B20556E69D5
:103C8000747320696E2043656C736975730A002034
:103C9000286D6D29002020473231202020203B2034
:103CA000556E69747320696E206D6D00486F6D6983
:103CB0006E67204661696C6564006F70656E0054C4
:103CC0005249474745524544007A5F6D696E007915
:103CD0005F6D696E00785F6D696E005265706F721E
:103CE00074696E6720656E6473746F70207374619D
:103CF0007475730A005761726E696E673A20486F77
:103D00006D696E672042756D702044697669736FC6
:103D100072203C20310A000000000000000000007A
:103D2000000000000048430000484300002A430010
:103D300000484200004842000080400202040000A7
:103D4000A0400000A04000000040FFFFFFFFE0FF98
:103D5000D1AFFF32FFD0FFFEFFE0FFD1AEFFD0FFBB
:103D6000FEFFE0FFD11000FFFEFFD0FFE0FFC1FF2C
:103D7000D1AED580A83FD300408D142002A1C8DA6F
:103D80001281CFD9F1DB402EA4A6AFFFD0FFFE20D9
:103D900062797465733B2063726320004E6F204527
:103DA0004550524F4D2E0A00454550524F4D20640C
:103DB00061746173697A65206572726F722E0A0090
:103DC0002073746F7265642073657474696E6773B1
:103DD0002072657472696576656420280045727288
:103DE0003A20454550524F4D20435243002028630E
:103DF000616C63756C6174656429210A0020213D42
:103E00002000454550524F4D20435243206D697369
:103E10006D61746368202D202873746F7265642946
:103E200020004572723A20454550524F4D20496E50
:103E300064657800496E6465783A20004572723A8C
:103E400020454550524F4D2056657273696F6E0084
:103E5000204D61726C696E3D563736290A00454522
:103E600050524F4D2076657273696F6E206D697385
:103E70006D617463682028454550524F4D3D0048A0
:103E8000617264636F6465642044656661756C7417
:103E90002053657474696E6773204C6F6164656448
:103EA0000A003B200000007A4300007A430000A093
:103EB000400000C8413914A0423914A042713DC8E5
:103EC000433333C642EE020000EE020000640000FD
:103ED00000F4010000506C656173652052657365E4
:103EE00074005052494E5445522048414C54454468
:103EF0000025533A202553004B494C4C45442E2075
:103F0000005072696E7465722068616C7465642E0D
:103F1000206B696C6C28292063616C6C6564210AD4
:103F2000006563686F3A004572726F723A00000074
:103F30002100240027002A002D0030003300010159
:103F40000000040107010A010000220025002800EA
:103F50002B002E0031003400020100000501080191
:103F60000B01000020002300260029002C002F0058
:103F700032000001000003010601090105050505E5
:103F8000070508080808020202020A0A08080404D1
:103F900004040101010101010101030303030303FF
:103FA0000303040707070C0C0C0C0C0C0C0C02028E
:103FB000020206060606060606060B0B0B0B0B0B8B
:103FC0000B0B010210202008081020401020408018
:103FD00002010201080402010102040810204080CD
:103FE000804020100804020180040201804020105B
:103FF00008040201080402010102040810204080A4
:10400000010204081020408000000A0B02090C0D78
:104010000E0807030401000000000000000000007B
:104020000000000000000000000000000000000090
:10403000000000001211100000000000000000004D
:1040400000000000000000000000000000004D6FB4
:1040500076652025736D6D004D6F766520302E31AD
:104060006D6D004D6F766520316D6D004D6F76651D
:104070002031306D6D004D6F766520417869730099
:10408000486F74656E6420746F6F20636F6C64009A
:104090004578747275646572004D6F7665205A00BC
:1040A0004D6F76652059004D6F7665205800506140
:1040B000757365205072696E74004D656469612086
:1040C00052656D6F766564004D6564696120496E67
:1040D000736572746564005072696E742041626F1A
:1040E00072746564004D323500001801120211240B
:1040F0001FBECFEFD1E2DEBFCDBF00E00CBF13E0AB
:10410000A0E0B2E0EAEBFEE702E00BBF02C00790DE
:104110000D92A835B107D9F728E1A8E5B3E001C0B1
:104120001D92A73AB207E1F710E2C6E7D0E200E03D
:1041300006C021970109802FFE010F94AE3BC537C1
:10414000D10780E00807A9F70F94F4260D944B3FA0
:104150000C9400002F923F924F925F926F927F9249
:104160008F929F92AF92BF92CF92DF92EF92FF9287
:104170000F931F93CF93DF93CDB7DEB7AF970FB6F3
:10418000F894DEBF0FBECDBF8EA7209165032CA78C
:1041900081E08093650380912A058D3409F444C23F
:1041A000843511F40C945F31873411F00C947A311A
:1041B00020912805309129052531310511F40C9401
:1041C0007C317CF4243031053CF4223031050CF094
:1041D000F6C037FF1DC024C22430310509F4FDC0EC
:1041E0001FC22A35310509F461C14CF42B31310568
:1041F00009F432C12C31310509F448C111C22B3503
:10420000310509F457C12C35310509F458C108C2EC
:1042100080917207813011F00C947C310E9487C22A
:104220008DEF97E10E949FFF8091391083FD88C038
:104230002091CB173091CC174091CD175091CE17CC
:104240006091091870910A1880910B1890910C18C0
:104250000F94C134882309F473C0809192098111AD
:104260001EC020E030E0A9016091F3127091F412B9
:104270008091F5129091F6120F94BE3B0F942A3D57
:104280002091390230913A026217730744F40F9477
:104290002C1788E592E30F94CA1611E001C010E0D4
:1042A0002091CB173091CC174091CD175091CE175C
:1042B0006091091870910A1880910B1890910C1850
:1042C0000F94BD3B6B017C0120E030E0A9010F940D
:1042D0001E3E87FF04C0F7FAF094F7F8F09420919F
:1042E0003502309136024091370250913802C701B1
:1042F000B6010F94273520E030E048E453E40F94F2
:104300001E3E18163CF40F942C1789E392E30F9489
:10431000CA1602C01123A1F08091091890910A18C1
:10432000A0910B18B0910C188093CB179093CC17D9
:10433000A093CD17B093CE1789E098E10E9499978A
:104340002AE037ED43E25CE36091170270911802B6
:104350008091190290911A020F9427356B017C010C
:1043600060913E0270913F02072E000C880B990B62
:104370000F94C8349B01AC01C701B6010F942735D7
:1043800069837A838B839C83C12CD12C76018E0127
:104390000F5F1F4F29E038E145E058E161E078E127
:1043A0008DEF97E10E9412FA80E1EDEFF7E1AFEBBC
:1043B000B7E101900D928A95E1F70C947C318091E0
:1043C0007207813011F00C947C312230310509F0F4
:1043D00080E00E94CD8D0C947C3180E50F943A13DF
:1043E000882329F00E948EC56B017C0103C0C12C7B
:1043F000D12C760183E50F943A13882361F00F9452
:10440000BA1220E030E04AE754E40F9427350F94C5
:10441000313D6B017C010E94889780913818811191
:1044200005C060E087E596E00F94AE220F9455201A
:10443000C60ED71EE81EF91E0F945520DC01CB01D5
:104440008C199D09AE09BF09B7FD02C00C947C31DF
:1044500080E00E94876BF0CF0E9442FC81110C9497
:104460007C318CE0E0E7F2E0DE01119601900D92E4
:104470008A95E1F760E070E080E50E942DC5BE01FD
:104480006F5F7F4F0E9493830C947C3180913B1728
:104490008770873011F00C949D3160E08FE40E94AA
:1044A000E2C981110C947C310C949D31109264030B
:1044B0000C947C318FE0809364030C947C31809168
:1044C0002705882349F1893009F0A6C0FCE7AF2E03
:1044D000F2E0BF2EAFEBEA2EA7E1FA2ED12C00E0DE
:1044E00010E0D5018D915D010F943A13882369F096
:1044F0000F94BA12F7016083718382839383133020
:1045000011F401E002C0DD24D3941F5FF4E0EF0E4C
:10451000F11C143031F775C06CE7262E62E0362EA0
:104520007EEEE72E77E1F72E2FEB37E139A328A3B4
:10453000E3EBCE2EE7E1DE2E00E010E0D1018D911D
:104540001D010F943A13882309F44BC00F94BA123B
:104550002B013C01133049F0F60120813181428169
:1045600053810F94BD3B2B013C01A8A1B9A12D9112
:104570003D914D915C91C301B2010F94BD3B4B0144
:104580005C012DEB37E346E855EB0F941E3E87FDAB
:104590000AC02DEB37E346E855E3C501B4010F949B
:1045A000C1341816F4F4133051F44092CB175092E2
:1045B000CC176092CD177092CE1701E012C0A50102
:1045C0009401F70160817181828193810F94BE3BD8
:1045D000D7016D937D938D939C931397812F0E94A8
:1045E0007FFF1F5FB4E0EB0EF11CE8A1F9A1349648
:1045F000F9A3E8A3F4E0CF0ED11C143009F09ECF4C
:1046000005C0DD2019F00F945A0106C0002321F0E7
:104610008BEC97E10E9499970F949C010C947C314C
:104620000E94B3FB0C947C31009128051091290560
:104630000637110509F47CC70CF0D2C00C34110503
:1046400009F4E1C30CF062C00931110509F4CBC2D1
:1046500034F50431110509F446C28CF40131110519
:1046600009F42DC234F40230110508F4B8C10C94D9
:104670005C310231110509F4FDC50C945C31063141
:10468000110509F455C20CF44FC20731110509F4A4
:1046900058C20831110509F46BC20C945C310E311B
:1046A000110509F41DC3B4F40B31110509F4BDC2A1
:1046B0000CF4ADC20C31110509F40AC30D3111051A
:1046C00011F00C945C318091DD138E7F8093DD13AB
:1046D0000C947C310A32110509F469C354F40F318A
:1046E000110509F444C30032110509F409C30C94FF
:1046F0005C310934110509F473C30B34110511F051
:104700000C945C310E9415960C947C310A3611058C
:1047100009F49FC4ACF50335110509F4A3C5BCF435
:104720000E34110509F477C30CF471C3013511057A
:1047300009F483C50235110511F00C945C318091A8
:1047400064038F7D8061809364030C947C310C350D
:10475000110509F4E1C554F40435110509F48AC5BD
:104760000535110509F4B3C50C945C310836110503
:1047700009F4E3C30936110509F458C40C945C31FB
:104780000F36110509F4A0C48CF40C36110511F490
:104790000C947C310CF47BC40D36110509F4F1C383
:1047A0000E36110509F47DC40C945C3102371105F5
:1047B00009F43EC65CF40037110511F40C947C3109
:1047C0000137110509F4C4C40C945C310337110599
:1047D00009F435C60537110509F49AC60C945C3105
:1047E0000D3221E0120711F40C94342E0CF06EC03F
:1047F000093C110509F4CAC754F50139110509F43A
:10480000E3C684F40837110509F4CFC60CF4CAC610
:104810000937110509F4D1C60C38110509F4BDC4D6
:104820000C945C310B39110509F4DFC434F40639FA
:10483000110509F424C70C945C310E3B110509F4F1
:10484000D0C4083C110509F457C70C945C31033DF2
:10485000110511F40C94432CD4F40C3C110509F40B
:10486000D7C734F40B3C110509F4B3C70C945C3181
:104870000D3C110509F4DAC70E3C110511F00C943A
:104880005C31E3E7EE2EE7E0FE2E10E0E2C7023EE9
:10489000110511F40C94862D64F40C3D110511F4EE
:1048A0000C94092D0D3D110511F40C94302D0C9430
:1048B0005C31023281E0180711F40C94D22D0C32D5
:1048C000114011F40C941F2E0C945C31063FA1E0B2
:1048D0001A0711F40C94D02F0CF040C00039E1E01D
:1048E0001E0711F40C946D2FB4F40F3221E012075F
:1048F00011F40C946A2F14F40C94262F003381E0E9
:10490000180711F40C94B32E0336114011F40C94D3
:10491000F9300C945C310C3AA1E01A0711F40C94B4
:10492000702F6CF40A39E1E01E0711F40C947C310D
:104930000D39114011F40C943B310C945C31043F5F
:1049400021E0120711F40C94CD2F053F114011F016
:104950000C945C310F9480120C947C310B3582E006
:10496000180711F40C94F52FC4F4083FA1E01A07BE
:1049700011F40C94DC2F14F40C94D32F0C30E2E0DF
:104980001E0711F40C94ED2F0835124011F00C9411
:104990005C310E94DBC50C947C31003A23E01207A5
:1049A00009F4D7C16CF4043883E0180711F40C94AF
:1049B0006E300B38134011F40C94D7300C945C31EA
:1049C000073EA3E01A0711F40C942D31083E134062
:1049D00011F00C945C310E9498C30C947C3180E5FA
:1049E0000F943A13882329F00E948EC56B017C0135
:1049F00003C0C12CD12C760183E50F943A13882390
:104A000061F00F94BA1220E030E04AE754E40F94CA
:104A100027350F94313D6B017C010E94889781E519
:104A20000F94F112182F882359F019828FEF8A837F
:104A30001B82CE0101960F94BA1481E080936C031F
:104A40008091250590912605009721F061E00F9453
:104A5000282307C0111105C060E080E696E00F949E
:104A6000AE220091650383E08093650381E080932B
:104A70008E18C114D104E104F10431F00F945520D3
:104A8000C60ED71EE81EF91E80918E18882311F4D9
:104A90000C943D33C114D104E104F10411F40C94DD
:104AA00053330F945520DC01CB018C199D09AE09BD
:104AB000BF09B7FF02C00C9453330C943D3380916F
:104AC000210584FF02C00C9458338091230587FF91
:104AD00002C00C94583380912405837011F00C941B
:104AE00058330C946F338BE896E00F94CA168AEF14
:104AF00093E10E94FDF28BE1EAEFF3E1DE01119612
:104B000001900D928A95E1F760E070E0CE01019688
:104B10000E940DA4CE0101960F9415148CE796E027
:104B20000F94CA160C947C310E94E4A00C947C3142
:104B30000E942FA08091DD13877F8093DD130C945A
:104B40007C31E0912505F09126058081882329F0AC
:104B5000803209F410823196F8CF60E0809125050B
:104B6000909126050E942CA3109280070C947C3112
:104B700083E50F943A13882321F00F94AA120E9420
:104B8000CB8A84E50F943A138823A9F00F94AA12D4
:104B90006B017C010E94B580C092C405D092C5050E
:104BA000E092C605F092C705CD28CE28CF2819F08F
:104BB00081E08093B2170E94A669882381F00E9449
:104BC00040A00E94159680E097E00E94E59F109219
:104BD0002B0510922C0510922D0510922E050E9487
:104BE00076FB0C947C318091DD1382FF03C08B7FB8
:104BF0008093DD138091E317882319F081E00F94EF
:104C000047130E94D0800E9476FB0C947C318091E7
:104C1000DD1383FD02C00C947C3183E50F943A13BD
:104C200081110C9479330C947C3183E40F94F1124C
:104C3000882319F186EA96E00F94CA1680914115EF
:104C4000882391F0BE016F5F7F4F8EE395E10E9454
:104C5000C4F18E010F5F1F4FF80181918F018823EE
:104C600039F00E945B6AF8CF8CE996E00F94CA167F
:104C70008AE00E945B6A0C947C318091DD1382FF94
:104C800021C085EB96E00F94CA166091D9137091FC
:104C9000DA138091DB139091DC134AE00E94626A80
:104CA0008FE20E945B6A6091D5137091D613809158
:104CB000D7139091D8134AE00E94626A0E94606BF9
:104CC0000C947C3187EC96E00F94CA160C947C31DE
:104CD00080912505909126050E94DCA20C947C31E0
:104CE0008091DD1383FD02C00C947C310E9499FBFE
:104CF00080912505909126050E9420A20C947C317C
:104D00008091DD1382FD0E9488978091DD1383FDE1
:104D100002C00C947C3160E080E50E94E2C9182F4B
:104D2000682F80912505909126050E942CA383E58C
:104D30000F943A13882321F00F94AA120E94CB8A71
:104D40000E9440A011110C947C310E9415960C9485
:104D50007C3120912505309126059091DD139260DC
:104D60009093DD13C9010E94DCA20C947C310E9457
:104D700081806C8F7D8F8E8F9F8FBE016F5F7F4F85
:104D8000CE014C960E94EC8960E0CE0101960F9412
:104D900028230F942C17BE016F5F7F4F88ED96E09C
:104DA0000F9415178AE00E945B6A0C947C316FEFB8
:104DB0007FEF80E50E947FC58C0197FF02C00C94B5
:104DC0007C31E82E60E089E40E94E2C981110C94F4
:104DD0007E33802F0F949F268111B5C60C947E33AD
:104DE00080E50F94F112882311F40C947C310E9419
:104DF0009EC590E08536910510F084E690E08093A2
:104E000080070C947C310E94D0800C947C310E94ED
:104E100071960C947C3160E070E083E50E947FC560
:104E20008E34910531F40E94E2960E9476FB0C9438
:104E30007C318DE497E00F94CA166091B6067091AC
:104E4000B70684E497E00F94EA166091B806709173
:104E5000B90687E397E00F94EA166091B606709161
:104E6000B7068091B8069091B906681B790B8091BE
:104E7000B217815021E030E0823010F020E030E0C5
:104E8000621B730B8CE297E00F94EA168AE00E9493
:104E90005B6A8DE497E00F94CA168091BA069091F0
:104EA000BB06A091BC06B091BD068C8F9D8FAE8FC6
:104EB000BF8FBE016F5F7F4FCE014C960E94EC8981
:104EC000BE016F5F7F4F8FE197E00F9415178091C0
:104ED000BE069091BF06A091C006B091C1068C8F0E
:104EE0009D8FAE8FBF8FBE016F5F7F4FCE014C96FF
:104EF0000E94EC89BE016F5F7F4F8FE097E00F94B7
:104F0000151720E030E04AE754E46091C206709142
:104F1000C3068091C4069091C5060F94B83CAB01BE
:104F2000BC0187EF96E00F94F7168DE60E945B6A4E
:104F30008AE00E945B6A0C947C318091391083FF77
:104F400002C00C947C310E94B2C587FF02C00C9451
:104F50007C3183E50F943A13882379F00F94BA12C9
:104F60000F942A3DCB010E9410F60E94A771811177
:104F700004C00E9471960E9476FB0F94C4260C9484
:104F80007C318091391083FF02C00C947C310E94E7
:104F9000B2C5F82E87FF02C00C947C3183E50F94D4
:104FA0003A13082F811106C082E50F943A13182F87
:104FB000882381F10F94BA120F942A3DCB010E94ED
:104FC00010F60E94A771882311F40C94BB330E9441
:104FD00015966091F7127091F812072E000C880B4D
:104FE000990B0F94C8344B015C014090F312509020
:104FF000F4126090F5127090F612A30192010F94D2
:105000001E3E181614F40C94DB33002311F40C9498
:10501000C13311E00F94C426112311F40C947C3198
:10502000602F8F2D0E9497F60C947C310E94B2C5A0
:10503000182F87FF02C00C94813183E49AE20F9409
:10504000CA16812F0E9420F68AE00E945B6A0C94A7
:10505000813180E50E9498FC81110C947C3181E4BF
:105060000F94F112882321F06091810970E002C051
:105070006FEF70E083E50E942DC58F3F910519F019
:1050800010F08FEF90E0809381090C947C3180E5E3
:105090000E9498FC81110C947C31109281090C942F
:1050A0007C318EE40F943A13882311F40C947C31F4
:1050B0000F94AA126093B3057093B4058093B5055D
:1050C0009093B6050C947C3183E50F94F1128823FC
:1050D00029F083E50E9498FC809339100F942C17D7
:1050E0008EE597E00F94CA1680913910882369F1F4
:1050F00050EEE52E5AE0F52E00E010E020E0809121
:10510000391090E0A0E0B0E0002E04C0B695A7955D
:10511000979587950A94D2F780FF0EC0DD24D3942B
:10512000D20E222319F08CE20E945B6AF70185916E
:1051300094910F94CA162D2D0F5F1F4F32E0E30E8E
:10514000F11C05301105D9F693CD8AE597E08ECD97
:1051500083E50F943A13882381F00E949EC5282F7F
:1051600030E02D33310524F4809300020C947C311F
:105170008CE3809300020C947C310F942C174091A7
:10518000000250E060E070E085E697E00F94D916E9
:105190008AE00E945B6A0C947C318091391083FF15
:1051A00002C00C947C3183E50F943A13882371F08C
:1051B0000F94BA120F942A3D6C3871050CF48B01D0
:1051C0001093A8160093A7160E9437710E94A7712A
:1051D00081110C947C310E9471960E9476FB0C9494
:1051E0007C310E9418880C947C3183E50F943A132B
:1051F000882311F40C947C310E949EC5182F90E0F6
:10520000CD970CF01CE310935C030F9455206B01B9
:105210007C01212F30E0A8EEB3E00F946B3BC60E6B
:10522000D71EE81EF91EC0925803D0925903E0928F
:105230005A03F0925B030C947C310E94BA710E9475
:1052400071960E94BE990E94A36968EE73E080E0A7
:1052500090E00F94A61660E08CE697E00F94AE22E3
:105260000C947C31809164038F7E80628093640310
:105270000C947C3183E50F943A138823A1F00F94AA
:10528000BA1220E030E04AE754E40F9427350F9437
:10529000313D609301027093020280930302909368
:1052A00004020C947C318091210584FF02C00C948F
:1052B000DE338091230587FF02C00C94DE3380919A
:1052C0002405837011F00C94DE330C940A3483E5CA
:1052D0000F94F112882311F40C947C310F94552013
:1052E0006093B7167093B8168093B9169093BA1658
:1052F0000F94BA1220E030E04AE754E40F942735C7
:105300000F94313D60935D0370935E0380935F0360
:10531000909360030C947C310E94B2C587FF02C059
:105320000C947C319091210594FD04C0909123054B
:1053300097FF0AC03CE7C32E32E0D32E4AE3E42EA7
:1053400040E1F42E10E009C090912405937091F78C
:10535000682F81E00E9440C5CFC7D6018D916D01B5
:105360000F943A13882309F459C0133009F04FC041
:105370000F94BA124B015C0120E030E040EA51E4A6
:105380000F94C13487FF3AC0A501940160915A106F
:1053900070915B1080915C1090915D100F94B83CFF
:1053A0002B013C019B01AC0160916A1070916B1064
:1053B00080916C1090916D100F94273560936A1056
:1053C00070936B1080936C1090936D1060917109C5
:1053D0007091720980917309909174090F94C63489
:1053E000A30192010F9427350F94313D6093710909
:1053F00070937209809373099093740980925A1084
:1054000090925B10A0925C10B0925D1007C00F9458
:10541000BA12F701648B758B868B978B1F5FF4E054
:10542000EF0EF11C143009F098CF0E941E9964C74A
:105430000E94BFFA8EE593E10E94E27A5DC78BE994
:1054400098E00F94CA1660E08BE898E00E94D5922D
:1054500060E086E798E00E94D59261E089E993E3F5
:105460000E94D59261E08BE698E00E94D59261E0BF
:105470008BE598E00E94D59260E082E598E00E947A
:10548000D59261E088E498E00E94D59260E08EE3D6
:1054900098E00E94D59260E086E398E00E94D59261
:1054A00060E088E298E00E94D59261E08AE198E0AD
:1054B0000E94D59260E08BE098E00E94D59261E076
:1054C0008DEF97E00E94D59261E087EE97E00E9411
:1054D000D59261E086ED97E00E94D59260E087EC7E
:1054E00097E00E94D59260E082EB97E00E94D5920F
:1054F00061E08FE997E00E94D59260E082E997E051
:105500000E94D59260E08EE797E00E94D592F4C6A3
:105510008091250590912605009709F460CBDC0168
:105520002C91222309F45BCB60E00F942823E4C67E
:10553000009125051091260594E0F12C40E0915052
:1055400021F1F8018081282F2B7F213421F4218142
:105550002133D9F407C08035C1F4818180538A306A
:1055600048F013C0813421F0853421F441E002C0B9
:10557000FF24F39498012E5F3F4F89012F5F3F4F27
:10558000F80180818032C9F3DACF41110F942C17D2
:10559000FF2021F085E699E00F94CA16C8010E9409
:1055A000666BAAC60F942102A7C681E08093C70646
:1055B0008093C6060F9440029FC61092C7061092B1
:1055C000C6060F94400298C660E070E083E50E9432
:1055D0007FC58C011127023011053CF00F9428176C
:1055E00089E699E00F94CA1687C688E40F943A13A7
:1055F0008823A9F00E947BC58A3A91053CF085304A
:10560000F1E09F072CF084E091E002C08AEA90E08C
:10561000F801EE0FFF1FE651F84E9183808386E478
:105620000F943A13882381F00E947BC597FD07C031
:105630008F3F910529F024F08FEF90E001C080E0CA
:10564000F801EC51F84E808382E40F943A138823DA
:1056500009F452C60E947BC58530910534F08D381F
:1056600091052CF08CE890E002C085E090E0F80114
:10567000EE0FFF1FEA51F84E918380833DC682E40E
:105680000F94F112882351F080916103909162038D
:10569000892B31F00E949EC5182F03C010E001C075
:1056A0001FEF85E50F94F112882351F0809161037B
:1056B00090916203892B31F00E949EC5082F03C090
:1056C00000E001C00FEF82E50F94F112882349F04A
:1056D0008091610390916203892B29F00E949EC5FD
:1056E00003C080E001C08FEF89830A831B83CE0152
:1056F00001960F94BA1400C60E94B2C5182F87FDF8
:10570000FBC584E40F94F1128823E9F10F94BA12D7
:105710006B017C0101E020E030E0A9010F94C1346D
:10572000811101C000E00093B70520E030E0A9013D
:10573000C701B6010F94C134882329F124E0120275
:10574000F0011124E454FA4FC082D182E282F38244
:1057500020E030E0A9016091BC057091BD05809109
:10576000BE059091BF050F94C13481110CC080E03B
:1057700090E0A0EEBFE38093BC059093BD05A0939D
:10578000BE05B093BF050E94B294B6C50E94B2C5D3
:1057900087FDB2C5ACE7EA2EA2E0FA2E0AE310E1DB
:1057A000D7018D917D010F94F112882359F00F9448
:1057B000BA120F94313DF801608371838283938321
:1057C0000E9411970C5F1F4FF0E10A341F0741F749
:1057D00093C50E94B2C587FD8FC5FCE7EF2EF2E0AE
:1057E000FF2E0AE310E1D7018D917D010F94F11294
:1057F000882339F00F94BA12F80164A375A386A325
:1058000097A30C5F1F4FF0E10A341F0761F774C5BF
:105810008091220587FF02C00C940D3480912305EE
:105820008E7011F00C940D340C945334809121053A
:1058300081FF02C00C947B348091220581FF02C05D
:105840000C947B34809123058C7011F00C947B3484
:1058500053C588E5810F0F94F112882359F00F94F6
:10586000BA12D7016D937D938D939C931397812FDB
:105870000E947FFF1F5FB4E0EB0EF11C133049F76D
:105880000F949C0139C54090B3175090B4176090A5
:10589000B5177090B61720914F0230915002409189
:1058A000510250915202C301B2010F94BE3B68A352
:1058B00079A38AA39BA38090B7179090B817A09064
:1058C000B917B090BA172091530230915402409109
:1058D000550250915602C501B4010F94BE3B6CA312
:1058E0007DA38EA39FA3C090BB17D090BC17E09060
:1058F000BD17F090BE172091570230915802409189
:10590000590250915A02C701B6010F94BE3B68A7D5
:1059100079A78AA79BA720915B0230915C024091F6
:105920005D0250915E02C301B2010F94BE3B2B0198
:105930003C0120915F0230916002409161025091E0
:105940006202C501B4010F94BE3B4B015C01209182
:105950006302309164024091650250916602C70172
:10596000B6010F94BE3B6B017C010F942C178AEC9F
:1059700099E00F94CA1683E50F94F112882321F061
:105980000E94D2C98093670280916702882319F030
:1059900087EC97E302C087E998E00F94CA1682EC7F
:1059A00099E00F94CA1648A159A16AA17BA186EE7D
:1059B0009BE30F94F7164CA15DA16EA17FA180E837
:1059C00099E30F94F71648A559A56AA57BA584E726
:1059D00099E30F94F71680E29EE30F94CA168AEBC0
:1059E00099E00F94CA16B301A20186EE9BE30F94CF
:1059F000F716B501A40180E899E30F94F716B701F3
:105A0000A60184E799E30F94F7168AE00E945B6A87
:105A100073C483E50F943A13882331F00E947BC549
:105A200090933F0280933E02809121059091220540
:105A3000A0912305B0912405892B8A2B8B2B09F08B
:105A40005BC460913E0270913F028AED99E00F9431
:105A5000081785E20E945B6A8AE00E945B6A4CC478
:105A60000E94B2C5F82E87FD47C483E50F943A1310
:105A70000F2D0F2C000C110B882369F10E947BC5A0
:105A8000F801EE0FFF1FE55EFD4F91838083000F4D
:105A9000111F000F111FF801EB5CFD4F7F01BC01CE
:105AA000990F880B990B0F94C8342AE037ED43E225
:105AB0005CE30F942735F801E854FA4F20813181D7
:105AC000428153810F942735D7016D937D938D9338
:105AD0009C93139711C40F942C1785E40E945B6A62
